{
  "contractName": "DappToken",
  "abi": [
    {
      "constant": true,
      "inputs": [],
      "name": "totalSupply",
      "outputs": [
        {
          "name": "",
          "type": "uint256"
        }
      ],
      "payable": false,
      "stateMutability": "view",
      "type": "function"
    },
    {
      "inputs": [],
      "payable": false,
      "stateMutability": "nonpayable",
      "type": "constructor"
    }
  ],
  "bytecode": "0x6080604052348015600f57600080fd5b50620f42406000819055506098806100286000396000f3fe6080604052600436106039576000357c01000000000000000000000000000000000000000000000000000000009004806318160ddd14603e575b600080fd5b348015604957600080fd5b5060506066565b6040518082815260200191505060405180910390f35b6000548156fea165627a7a72305820a68bcb3cbc4e1d9dfd667422625ba7e1c6dff3097b6d0441a10bd6be462958b80029",
  "source": "pragma solidity 0.5.1;\r\n\r\ncontract DappToken {\r\n    // Constructor\r\n    // Set the total number of tokens\r\n    // Read the total number of tokens\r\n    uint public totalSupply;\r\n\r\n    constructor() public {\r\n        totalSupply = 1000000;\r\n    }\r\n}\r\n",
  "sourcePath": "C:/crypto/token_sale/contracts/DappToken.sol",
  "compiler": {
    "name": "solc",
    "version": "0.5.1+commit.c8a2cb62.Emscripten.clang"
  },
  "schemaVersion": "3.4.1",
  "updatedAt": "2021-06-20T16:23:46.644Z",
  "networkType": "ethereum",
  "devdoc": {
    "methods": {}
  },
  "userdoc": {
    "methods": {}
  }
}